:020000040800F2
:1000000000000220AD0D0008010E0008010E0008DE
:10001000010E0008010E0008010E0008000000009B
:10002000000000000000000000000000010E0008B9
:10003000010E000800000000010E0008010E00087B
:10004000010E0008010E0008010E0008010E000854
:10005000010E0008010E0008010E0008010E000844
:10006000010E0008010E0008010E0008010E000834
:10007000010E0008010E0008010E0008010E000824
:10008000010E0008010E0008010E0008000000002B
:10009000000000000000000000000000010E000849
:1000A000010E0008010E0008010E0008010E0008F4
:1000B000010E0008010E0008010E0008010E0008E4
:1000C000010E0008010E0008010E0008010E0008D4
:1000D000010E0008010E0008010E000800000000DB
:1000E000010E0008010E0008010E000800000000CB
:1000F000000000000000000000000000010E0008E9
:1001000000000000010E0008010E0008010E0008AA
:1001100000000000000000000000000000000000DF
:10012000010E0008010E0008010E0008010E000873
:10013000010E0008000000000000000000000000A8
:10014000000000000000000000000000010E000898
:10015000010E0008010E0008010E0008010E000843
:10016000010E0008010E0008000000000000000061
:10017000000000000000000000000000000000007F
:1001800000000000010E0008000000000000000058
:10019000010E0008010E000808B50548054B1B1AA2
:1001A000062B00D808BD044B002BFBD09847F9E77D
:1001B000700A0020730A00200000000008B50748FC
:1001C000074B1B1A9B1003EBD373591000D108BDCA
:1001D000044A002AFBD09047F9E700BF700A0020CC
:1001E000700A00200000000010B5064C237843B9C7
:1001F000FFF7D2FF044B13B10448AFF30080012393
:10020000237010BD700A002000000000E0E6000826
:1002100008B5074B1BB107480749AFF300800748F3
:10022000036813B1064B03B19847BDE80840C5E722
:1002300000000000E0E60008740A00206C0A0020BC
:1002400000000000134B002B08BF114B9D46A3F587
:10025000803A00218B460F461148124A121A04F0C8
:100260002DFA0D4B002B00D098470C4B002B00D0E3
:1002700098470020002104000D000B4802F06CFE9E
:1002800003F096FD2000290000F06CFD02F07AFEDC
:100290000000080000000220000000000000000034
:1002A000700A00209C110020D9330008014B036024
:1002B000704700BFF8DA0008036E01330366704729
:1002C00010B5034B0360044602F042FE204610BD09
:1002D000F8DA000838B590F90030013304460D46CD
:1002E00004D106480649352202F050FB63680DB17F
:1002F000E26800E022699BB2138038BD00DB000891
:1003000018DB000810B5074B036003F118024C33EB
:100310000446C26503665C3002F08EFA024B23602D
:10032000204610BD70DD0008F8DA0008A0F160007A
:10033000FFF7E8BFA0F15C00FFF7E4BF10B504468B
:10034000FFF7E0FF204602F003FE204610BDA0F1BB
:100350006000F3E7A0F15C00F0E713B50822044663
:10036000684604F0B1F80198009B10F0010F4FEAC5
:10037000600018BF2258204418BFD358984702B0D5
:1003800010BD000037B50446002502F0CDF90B4B37
:10039000E462694604F1300008220093019504F0FC
:1003A00093F8074B2364012104F11800A5620A4663
:1003B00001F0E2FE204603B030BD00BFB9020008E4
:1003C0005B030008000000002DE9F04F4FF07E5164
:1003D00085B0B94801F0E6FF4FF07C5002F08EFB8B
:1003E0000021B54801F0DEFF4FF07C5002F086FBA3
:1003F0004FF07E51B04801F0D5FF4FF07C5002F035
:100400007DFB0021AC4801F0CDFF4FF07C5002F0A5
:1004100075FB4FF07E51A84801F0C4FF4FF07C50AF
:1004200002F06CFBA549A64802F056FAA5484FF425
:100430007A7102F025F8A4484FF47A7102F020F89E
:10044000A2480021FFF746FFA1480121FFF742FF24
:100450009C48002102F0DCF89B48002102F0D8F80B
:100460009C4ADFF8A8B2136E9B4A9C4D9C4E9D4F50
:10047000CBF80030DFF898A2136E9B4C2B609B48A2
:10048000336E396ECAF80030216002F06FFADFF87F
:100490008482DFF88492002800F05781884802F0B7
:1004A00011FA2A680092236801935FFA80FC904950
:1004B0008348DBF80020DAF80030CDF80CC002F0F9
:1004C0000BFADDF80CC0BCF1650F1BD1D8F80000A9
:1004D0000CF0A2FC72A3D3E9002304460D460CF0F5
:1004E00061FF002800F031816FA3D3E9002320468B
:1004F00029460CF033FB0CF0C5FF7E49C8F800001C
:100500006F481CE1BCF1640F1BD1D8F800000CF05F
:1005100083FC67A3D3E9002304460D460CF060FF7B
:10052000002800F0128160A3D3E900232046294669
:100530000CF012FB0CF0A6FF6F49C8F800006048F1
:10054000FDE0BCF1750F1BD1D9F800000CF064FC84
:1005500053A3D3E9002304460D460CF023FF0028E3
:1005600000F0F38050A3D3E90023204629460CF085
:10057000F5FA0CF087FF6149C9F800005048DEE049
:10058000BCF16A0F1BD1D9F800000CF045FC48A360
:10059000D3E9002304460D460CF022FF002800F0AA
:1005A000D48041A3D3E90023204629460CF0D4FA95
:1005B0000CF068FF5249C9F800004148BFE0BCF1A7
:1005C000740F34D1D9F800000CF026FC34A3D3E921
:1005D000002306460F460CF0E5FE002800F0B5802B
:1005E000D8F800000CF018FC2DA3D3E90023044632
:1005F0000D460CF0D7FE002800F0A7802AA3D3E90F
:100600000023304639460CF0A9FA0CF03BFF26A334
:10061000D3E90023C9F80000294620460CF09EFAD1
:100620000CF030FF3749C8F80000254887E0BCF1DE
:10063000670F73D1D9F800000CF0EEFB1CA3D3E9CF
:10064000002304460D460CF0CBFE00287DD0D8F8E0
:1006500000000CF0E1FB16A3D3E9002306460F4689
:100660000CF0BEFE002870D00FA3D3E90023204673
:1006700029460CF071FA0CF005FF0BA3D3E9002317
:10068000C9F80000394630460CF066FA0CF0FAFE64
:100690001D49C8F800000A4851E000BFAFF30080D0
:1006A0009A9999999999E93F9A9999999999C93FEC
:1006B0009A9999999999E9BF9C0A00205DDB0008F5
:1006C000200B00208C0A0020F80C0020AC0A00202F
:1006D000E40C00204C0B0020140C0020E00C002047
:1006E000B00B00207C0C00203C0B0020C40A002032
:1006F00065DB0008BADB0008C6DB0008DBDB0008AE
:10070000EEDB0008D4DB0008E7DB0008400B00202C
:10071000440B0020C00A0020480B0020BCF1620FEF
:1007200010D10023354AC9F80030C8F80030002342
:100730001366334A33483449336613663B6602F026
:10074000CBF802E0BCF1200FEBD0D9ED007A2F4DB1
:100750002F4C3048F5EEC07AF1EE10FA0BDD002197
:10076000FFF7B8FD95ED007AD4ED007A77EE277AA1
:100770009FED297A0AE00121FFF7ACFD95ED007AA3
:10078000D4ED007A77EE277A9FED247A2448254D20
:10079000254C67EE877AFDEEE77A17EE901A01F0A6
:1007A00037FFD8ED007A2148F5EEC07AF1EE10FA65
:1007B0000BDD0121FFF78EFD95ED007AD4ED007A77
:1007C00077EE277A9FED147A0AE00021FFF782FD89
:1007D00095ED007AD4ED007A77EE277A9FED0F7AC7
:1007E000134867EE877AFDEEE77A17EE901A01F06C
:1007F0000FFF104802F082F932E600BF4C0B0020D8
:10080000140C0020200B0020FCDB0008480B00200B
:10081000780C0020AC0A002000007A4400007AC462
:100820008C0A0020C00A0020380B0020E40C0020B5
:10083000F80C0020CDCCCC3D70B52C4D2C4C2D4E61
:10084000002328460221032201F0A4FF2246284665
:1008500029492A4D02F076FB2948052101F066FE60
:1008600030461D21FFF78EFD3046264E2246294692
:1008700002F068FB30461121FFF784FD3046224E1E
:100880002246294602F05EFB30461E21FFF77AFD24
:1008900030461E4E2246294602F054FB30461221B5
:1008A000FFF770FD22462946194C304602F04AFBFC
:1008B00014251848162101F039FE2A462046002149
:1008C00003F0FCFE20460921134C02F099F813486E
:1008D000272101F02BFE204600212A4603F0EEFEE0
:1008E00020460821BDE8704002F08AB8C40A002002
:1008F000980100204C0B0020050300082109000886
:100900009C0A0020B00B0020140C00207C0C00205E
:10091000AC0A00208C0A0020E40C0020F80C002017
:1009200010B5044601F0DAFE204610BD08B572B6D7
:10093000962002F0F1F8962002F0EEF8F8E700BFFA
:100940000F4A30B493689468B4F1006F1A4604D02B
:10095000103030BC42F8201070470A4A03F5CC75BD
:1009600053F8044B42F8044FAB42F9D14FF0005218
:10097000034B10309A6030BC42F82010704700BF23
:1009800000ED00E0FCFFFF1F70B50F4C2368DA6834
:10099000910715D4DA68520709D56FF004020B4E9F
:1009A0001A615D6A3368EB1AB3F57A7F00D270BDC5
:1009B00000F044FA2368356005F57A759D6370BDD3
:1009C00002F0B0F82368E5E704110020080D0020CC
:1009D00038B5204B204C1A6C42F008021A641A6A8F
:1009E00042F008021A621A6A22F008021A6201F042
:1009F00099F91A4A1A4B12681A492160A3FB02128C
:100A0000920C0025013A4FF0FF3320466260E3600C
:100A10002561A560656100F09FFF32201249FFF754
:100A20008FFF124B4FF480225A602946204600F077
:100A300001FF2046042100F0FDFE23680C495A6A9C
:100A40000A6002F57A729A63DA6842F00402284674
:100A5000DA6038BD0038024004110020B0010020E7
:100A600083DE1B43000C00408909000800E100E020
:100A7000080D002008B501F055F9BDE8084000F068
:100A8000C3B900BF036870B51B6900210122044689
:100A90009847431C05460ED0236820461B69002159
:100AA000022298472368064629461B6920460022F1
:100AB0009847304670BD70BD084B094A026010B4BB
:100AC00003F58071002453F8042B824208BF43F8D9
:100AD000044C8B42F7D15DF8044B70470C0D00209D
:100AE00028DC00080A4B0B4A10B503F58071044658
:100AF0000260002053F8042B944208BF43F8040C12
:100B00008B42F7D1204602F023FA204610BD00BFE9
:100B10000C0D002028DC000802480221032201F00D
:100B200091BB00BF7C110020F0B50E4685B0354961
:100B3000054604F0F9F920B9334B1B6863B105B0E1
:100B4000F0BD2846314904F0EFF978B92E4B1B6807
:100B500043B1012005B0F0BD0190FFF7DDFF019822
:100B600005B0F0BDFFF7D8FF0120E8E72846284987
:100B700004F0DAF910B3274B002402E00134402CD2
:100B800021D053F8040F0028F8D12B783A2B32D01B
:100B9000294602A801F04AFD02A801F099FD90B192
:100BA00002A801F07DFD88B102A801F083FD034693
:100BB0004BB1194AE01C42F82430C0E7124B1B68C5
:100BC000ABB10220BBE74FF0FF30B8E702A801F05D
:100BD0005BFD05460028F6D0036802A89F6801F077
:100BE00051FD324601462846B8470346E0E7FFF785
:100BF00093FF0220A3E72846084902AA04F014F94B
:100C0000029BD5E704DC00082810002014DC000853
:100C10000CDC0008080D00200C0D002050DC000842
:100C2000022808B50BDDC21E074B53F82200002135
:100C300043F8221028B103685B68984708BD00207C
:100C400008BD4FF0FF3008BD0C0D0020022870B524
:100C50000C4616460FDC0E4B1B680BB9FFF75CFF0A
:100C6000A51936B114F8011B0A4801F085FBAC4206
:100C7000F8D1304670BD0338074B53F8200018B147
:100C800003681B68984770BD4FF0FF3070BD00BF10
:100C9000281000207C1100200C0D0020022810B527
:100CA0000C4609DC0D4B1B688BB10D4801F058FB5D
:100CB00001232070184610BD03380A4B53F820005A
:100CC00040B103689B6898470346184610BDFFF77C
:100CD00023FFEAE74FF0FF33ECE700BF28100020C6
:100CE0007C1100200C0D0020022808B508DD033817
:100CF000064B53F8200028B10368DB68984708BD0D
:100D0000012008BD4FF0FF3008BD00BF0C0D0020D2
:100D1000022808B508DD0338064B53F8200028B137
:100D200003681B69984708BD002008BD4FF0FF30DD
:100D300008BD00BF0C0D0020022808B504D84FF4F0
:100D400000534B60002008BD02F016F90923036030
:100D50004FF0FF3008BD00BF08B5012002F012F9C6
:100D6000704700BF08B5FFF785FEFFF7F9FFBDE844
:100D70000840FFF729BB00BF074A13681844EFF388
:100D80000881884202D2106018467047034B0C223B
:100D90001A604FF0FF3070479C010020981100202E
:100DA000002103F093BF00BF02F016BADFF838D07D
:100DB000002100F004B80D4B5B58435004310C483F
:100DC0000C4B42189A42FFF4F6AF0B4A00F003B8FE
:100DD000002342F8043B094B9A42FFF4F9AF01F0BB
:100DE0006DF8FFF72FFA7047000002205CE700085B
:100DF00098010020700A0020700A00209C11002039
:100E0000FFF7FEBF704700BF08B50B4B1A6842F4EE
:100E100000721A601A6842F480621A601A6842F41A
:100E200080721A60032000F017F80F20FFF7D0FD42
:100E3000FFF7E8FF002008BD003C0240024B1A68A3
:100E400001321A60704700BF0C0E0020014B186879
:100E5000704700BF0C0E0020074AD1684FF6FF0311
:100E60000B4043F0BF6300F0070043F4003343EA54
:100E70000023D360704700BF00ED00E02DE9F00FC4
:100E800082B00F68DFF85CC28F4E0197002303E049
:100E90000133102B00F0BC800122019D9A4002EA30
:100EA00005049442F4D14A6822F01009B9F1020F06
:100EB0006CD05D004FF00308D0F800B008FA05F8D8
:100EC0006FEA080802F0030A08EA0B0B0AFA05FAAF
:100ED00009F1FF394BEA0A0AB9F1010FC0F800A085
:100EE0007ED9D0F80C908F6808EA090807FA05F552
:100EF00048EA0505C560D500CAD5DCF84480734FC3
:100F000023F0030505F1804548F4804805F59C353C
:100F1000CCF8448003F00308D5F808A04FEA88080D
:100F20004FF00F0909FA08F9B8422AEA090973D003
:100F300007F58067B84200F09E80654FB84200F028
:100F40009F80644FB84200F0A080634FB84200F029
:100F5000A180624FB84200F0A780614FB84200F014
:100F6000A880DFF884A1504500F09980DFF87CA1CB
:100F7000504500F0A380DFF878A150450CBF4FF03A
:100F8000090A4FF00A0A0AFA08F847E04FEAD308BC
:100F900000EB880803F00709D8F820704FEA8909A8
:100FA0004FF00F0A0AFA09FA27EA0A0A0F6907FA44
:100FB00009F94AEA0905C8F820505D004FF0030816
:100FC000D0F800A008FA05F86FEA080802F0030953
:100FD00008EA0A0A09FA05F94AEA0909C0F800907C
:100FE000D0F80890CF6808EA090907FA05FA49EA33
:100FF0000A09C0F80890D0F804A0C2F300192AEA40
:10100000040A09FA03F94AEA0909C0F8049068E7F2
:1010100002B0BDE8F00F70474FF0000848EA090839
:10102000C5F80880D6F80080E543D7034CBF44EAF2
:10103000080805EA0808C6F80080D6F80480970377
:101040004CBF44EA080805EA0808C6F80480D6F848
:101050000880D7024CBF44EA080805EA0808C6F829
:101060000880D6F80C80920254BF05EA080444EACE
:101070000804F4600CE74FF0010A0AFA08F8CDE71B
:101080004FF0020A0AFA08F8C8E74FF0030A0AFA12
:1010900008F8C3E74FF0040A0AFA08F8BEE74FF071
:1010A000070A0AFA08F8B9E74FF0050A0AFA08F839
:1010B000B4E74FF0060A0AFA08F8AFE74FF0080A5B
:1010C0000AFA08F8AAE700BF003C0140000002400D
:1010D00000080240000C02400010024000140240D0
:1010E0000018024000380240001C0240002002406C
:1010F00000240240F8B50368DE07044635D5984A57
:10110000916801F00C01042900F0F980916801F068
:101110000C01082900F0EF80924B914D00221A70CB
:10112000FFF794FE064606E0FFF790FE801BB0F541
:10113000FA7F00F2C0802B689903F5D4894B22799D
:101140001A706368012B00F05F81FFF77FFE844D0A
:10115000064606E0FFF77AFE801BB0F5FA7F00F244
:10116000AA802B689B03F5D423689F072FD57C4A60
:10117000916811F00C0F00F0A480916801F00C014F
:10118000082900F09A80E368002B00F0D380764BAA
:10119000734D01221A60FFF759FE064605E0FFF77E
:1011A00055FE801B642800F286802B686C4A9807E5
:1011B000F5D51168F82090FAA0F0B0FA80F0236914
:1011C000C0B221F0F80183400B43136023681A0773
:1011D00020D4590734D4A369D3B1614DAA6802F071
:1011E0000C02082A00F09480022B604B4FF00002A2
:1011F0001A6000F0B080FFF729FE2C46054604E097
:10120000FFF724FE401B642855D823689B01F7D4C0
:101210000020F8BD6369002B7CD0554B504D012256
:101220001A60FFF713FE064604E0FFF70FFE801B6F
:10123000642840D86B6F9F07F7D523685907CAD534
:10124000474B4C4D1A6C42F080521A642B6843F4A1
:1012500080732B60FFF7FAFD064604E0FFF7F6FD0A
:10126000801B642827D82B68DA05F7D5424B3C4D04
:1012700000221A70FFF7EAFD064605E0FFF7E6FDDB
:10128000801BB0F5167F16D82B6F9B07F6D43A4B10
:10129000227A1A70A368012B00F0C680FFF7D6FDF2
:1012A0002F4D06462B6F980795D5FFF7CFFD801B76
:1012B000B0F5167FF6D90320F8BD526856023FF507
:1012C00062AF274A1268950702D5E268012A1FD14A
:1012D000234AF825106895FAA5F5B5FA85F522692F
:1012E0001F49EDB220F0F800AA4002430A601A0735
:1012F0007FF56FAF8EE7526855027FF50DAF184A44
:10130000126890037FF531AF6268012A3FF42DAF78
:101310000120F8BD164A124D1360FFF797FD0646EF
:1013200004E0FFF793FD801B6428C4D86B6F980717
:10133000F7D482E70C4A0A4D1360FFF787FD064693
:1013400004E0FFF783FD801B6428B4D82B6899075D
:10135000F7D423683BE7FFF779FD064613E000BFAB
:101360000038024002380240000047426000474215
:10137000800E47420070004070380240FFF766FD63
:10138000801B642897D82B689901F7D447F6C0755D
:1013900095FAA5F5B5FA85F54FF4403191FAA1F12A
:1013A000B1FA81F14FF0706292FAA2F2B2FA82F2CF
:1013B000D4F820C0E769A66AD4F824E0E06A224B9A
:1013C000224C4CEA0707EDB276080EFA05F5C9B2D1
:1013D00047F00057013E3D43D2B206FA01F100FA50
:1013E00002F229431143012261601A60FFF72EFDCA
:1013F000054605E0FFF72AFD401B64283FF65BAF7A
:1014000023689A01F6D503E7FFF720FD0F4D064646
:1014100006E0FFF71BFD801BB0F5FA7F3FF64BAFF0
:101420002B689A03F5D59FE6FFF710FD074D06469A
:101430002B6F9F073FF5CFAEFFF708FD801BB0F580
:10144000167FF5D937E700BF6000474200380240F9
:10145000694B1A6802F00F028A422DE9F0410C46EE
:10146000054609D2CAB21A701B6803F00F038B42FB
:1014700055D00120BDE8F08103689A0706D55F4A80
:101480008168906820F0F00001439160DF0724D567
:101490006B685A4A012B126800F08780022B00F01B
:1014A0008B809107E5D5554FBA6822F003021343AC
:1014B000BB60FFF7CBFC6B68012B064641F2883816
:1014C00062D0022B05D16AE0FFF7C0FC801B4045CB
:1014D0006FD8BB6813F00C0FF6D1474BE2B21A700D
:1014E0001B6803F00F03A342C3D12B685A0706D52C
:1014F000424AE968906820F4E050014391601B077C
:1015000007D53E4B29699A6822F4604242EAC1023B
:101510009A600F20FFF75CFA0020BDE8F0810368B5
:101520009F0706D5354A8168906820F0F000014396
:101530009160DE07DAD56B68304A012B126858D00B
:10154000022B53D0910794D52C4EB26822F003029F
:101550001343B360FFF77AFC6B68012B044641F23A
:10156000883732D0022B05D13AE0FFF76FFC001B21
:10157000B8421ED8B36813F00C0FF6D1B5E7FFF7E9
:1015800065FC801B404514D8BB6803F00C03042B9A
:10159000F5D1A2E7FFF75AFC801B404509D8BB688C
:1015A00003F00C03082BF5D197E796033FF57BAFCB
:1015B0005FE70320BDE8F08190013FF574AF58E785
:1015C000FFF744FC001BB842F3D8B36803F00C03E8
:1015D000042BF5D189E7FFF739FC001BB842E8D8A6
:1015E000B36803F00C03082BF5D17EE79001ABD470
:1015F0003FE79403A8D43CE7003C02400038024097
:10160000234B9A6802F00C02042A10B43CD0082A3A
:1016100003D020485DF8044B704758685A6800F0C2
:101620003F014FF4800393FAA3F3B3FA83F302F478
:101630008002DBB232FA03F3154B47F6C0725C68E6
:1016400092FAA2F2B2FA82F247F6C07314BF1248BD
:101650001048D2B22340D3400D4AB0FBF1F000FB5A
:1016600003F052684FF4403393FAA3F3B3FA83F3D1
:1016700002F44032DBB222FA03F301335B00B0FB29
:10168000F3F05DF8044B704703485DF8044B704776
:10169000003802400024F40000127A0008B5FFF779
:1016A000AFFF094BF0229B6892FAA2F2B2FA82F2E3
:1016B00003F0F003D2B223FA02F20449044B8A5C2D
:1016C000D040186008BD00BF0038024060DC000850
:1016D000B001002008B5FFF7E1FF084A4FF4E053DE
:1016E000926893FAA3F3B3FA83F302F4E052DBB205
:1016F00022FA03F3024AD35CD84008BD0038024006
:1017000060DC000808B5FFF7C9FF084A4FF46043E2
:10171000926893FAA3F3B3FA83F302F46042DBB264
:1017200022FA03F3024AD35CD84008BD00380240D5
:1017300060DC0008036A23F00103F0B48F680E68D0
:101740000362036A104D4268846923F0020324F0A7
:101750007304A84243EA070344EA060406D0496832
:10176000426084614163F0BC03627047CF688E6958
:101770004D6923F0080322F440723B43354323F0C4
:1017800004032A43EBE700BF00000140036A23F48F
:101790008073F0B48F680E680362036A114D42686B
:1017A000C46923F4007324F07304A84243EA0723B6
:1017B00044EA060406D049684260C461C163F0BCD3
:1017C00003627047CF684E698D6923F4006322F489
:1017D000405243EA072342EA061223F4806342EAB6
:1017E0000512E8E700000140036A23F48053F0B4D7
:1017F0008F680E680362026A0C4D4368C46922F464
:10180000005224F4E644A84242EA073244EA06249D
:1018100006D049684360C4610164F0BC026270474D
:101820004D6923F4804343EA8513F2E70000014049
:10183000704700BF03680E4A186A10B4012404FA06
:1018400001F120EA01001862186A934241EA00019E
:10185000196207D01A685DF8044B42F001020020BB
:101860001A6070475A6C42F400425A64F2E700BFB3
:1018700000000140704700BF03680E4A186A10B4A8
:10188000012404FA01F120EA01001862186A934267
:1018900041EA0001196207D01A685DF8044B42F072
:1018A000010200201A6070475A6C42F400425A64E8
:1018B000F2E700BF00000140264A0368904230B4BE
:1018C00034D0B0F1804F20D0A2F57C4290421CD0A1
:1018D00002F58062904218D002F58062904214D0E6
:1018E00002F59A32904214D002F58062904210D0F4
:1018F00002F5806290420CD08C680A680360012374
:10190000C462826230BC436170474A6823F070034E
:101910001343CD688C680A6823F440732B4303603B
:101920000123C462826230BC436170474C68CA685C
:1019300023F070031C4324F44074224302608B683C
:10194000C3620B6883620B6903630123436130BC8C
:10195000704700BF0000014010B5044690B190F8F8
:10196000393063B12146022351F8040B84F8393031
:10197000FFF7A2FF012384F83930002010BDFFF7E4
:1019800057FFEFE7012010BD10B5044690B190F865
:10199000393063B12146022351F8040B84F8393001
:1019A000FFF78AFF012384F83930002010BDFFF7CC
:1019B00061FFEFE7012010BD036A23F01003F0B4CC
:1019C0008F680E680362036A114D4268846923F0D0
:1019D000200324F4E644A84243EA071344EA062419
:1019E00006D04968426084618163F0BC036270473D
:1019F000CF684E698D6923F0800322F4406243EA88
:101A0000071342EA860223F0400342EA8502E8E730
:101A10000000014038B590F83830012B04460D46DF
:101A200028D00121022380F8381080F839300C2AA0
:101A300019D8DFE802F007181818341818184718D2
:101A40001818210029460068FFF774FE23682A69E8
:101A5000996941F008019961996921F0040199613E
:101A600099690A439A610123002084F8393084F887
:101A7000380038BD022038BD29460068FFF7B4FEA3
:101A800023682969DA6942F40062DA61DA6922F4CA
:101A90008062DA61DA6942EA0122DA61E3E7294623
:101AA0000068FFF789FF236829699A6942F4006298
:101AB0009A619A6922F480629A619A6942EA0122E3
:101AC0009A61D0E729460068FFF760FE23682A691B
:101AD000D96941F00801D961D96921F00401D961BE
:101AE000D9690A43DA61BEE7036804201A6A00FA7A
:101AF00001F122EA01021A621A6A114319625A6C50
:101B000042F400425A641A6842F001021A6000204E
:101B1000704700BF2DE9F0410568C1682B69C269B3
:101B2000D0F810E08768466923F44053194304460F
:101B300080692961EB684EEA070123F416433143BB
:101B400023F00C0311430B43EB606B6923F44073E8
:101B50000343B2F5004F6B61594B3CD09D4200F0FE
:101B60008C8003F580639D4200F08780FFF7B2FD13
:101B70006368544E00EB80009B0000EB8000B0FBDC
:101B8000F3F7FFF7A7FD636800EB80009B0000EB15
:101B90008000B0FBF3F8FFF79DFD636800EB800069
:101BA00000EB80009B00B0FBF3F3A6FB0727A6FB2E
:101BB00003237F095B0964203F0100FB13884FEA80
:101BC000081808F13208A6FB0836C6F34316374357
:101BD000AF60BDE8F0819D422DD003F580639D424A
:101BE00029D0FFF777FD6368364E00EB80005B007D
:101BF00000EB8000B0FBF3F7FFF76CFD636800EBD0
:101C000080005B0000EB8000B0FBF3F8FFF762FDA3
:101C1000A6FB072763687F0900EB80003F0100EB0C
:101C200080005B00B0FBF3F3A6FB03235B09642297
:101C300002FB1388C3E7FFF765FD6368214E00EBE5
:101C400080005B0000EB8000B0FBF3F7FFF75AFD6C
:101C5000636800EB80005B0000EB8000B0FBF3F8F2
:101C6000FFF750FDA6FB072763687F0900EB8000A4
:101C70003F0100EB80005B00D4E7FFF743FD6368A2
:101C8000104E00EB80009B0000EB8000B0FBF3F7F0
:101C9000FFF738FD636800EB80009B0000EB8000DD
:101CA000B0FBF3F8FFF72EFDA6FB072763687F095B
:101CB00000EB80003F0100EB80009B00B2E700BF1B
:101CC000001001401F85EB51704700BF10B504465E
:101CD00028B390F83930FBB12368022284F8392008
:101CE000DA6822F40052DA602046FFF713FF236817
:101CF0001A6922F490421A615A6922F02A025A6142
:101D0000D868002240F400500121D86084F83A20BD
:101D1000104684F8391010BDFFF7D6FFDCE701202C
:101D200010BD00BF164B9A6802F00C02042A24D0A2
:101D3000082A0AD0134A124B13489968134BC1F36F
:101D40000311415CCA401A607047586859685B6863
:101D500042024CBF0E4A0B4A01F03F01C3F3881305
:101D6000B2FBF1F202FB03F2054B5B68C3F30143E4
:101D700001335B00B2FBF3F2DDE7054ADBE700BFAE
:101D8000003802400024F400A0010020B00100202F
:101D900000127A001D4A1E4B116C30B541F0805183
:101DA0001164196893B021F4404141F400410122CB
:101DB00019600692A0B907920423C82109220224BF
:101DC0004FF4800506A80E9310930C940D950F9177
:101DD0001192FFF78FF9034628B1002013B030BDF0
:101DE00005230793E8E74FF480520F2501A803214C
:101DF00002940393059301950492FFF729FBD0F118
:101E0000010038BF002013B030BD00BF00380240D1
:101E1000007000401F4A204B116CF0B541F080511A
:101E200011641A6822F4404293B042F400421A60EE
:101E30004FF0010C092300244FF0100EC82104229A
:101E400003260225082706A811930696CDF824C07C
:101E500007940D94CDF828E00C950E970F911092F1
:101E6000FFF748F9034610B1204613B0F0BD4FF418
:101E7000805231460F2401A80295039305930194E3
:101E80000492FFF7E5FAD0F1010038BF002013B04B
:101E9000F0BD00BF003802400070004008B50120CE
:101EA000FFF778FF00B108BDFFF774FF0028FAD1F3
:101EB000FFF7B0FF0028F6D1FEE700BF174B184828
:101EC000D3F8882070B542F47002164CC3F888200D
:101ED0002268154E154D002142F001022260A160DA
:101EE000226822F0847222F48032226066602668C2
:101EF0004FF0006226F480262660E1609A6005605B
:101F0000FEF782FFFFF7CAFF236A43F0080323624C
:101F1000236A23F00803236270BD00BF00ED00E0D8
:101F2000B001002000380240103000240024F400EA
:101F3000194B2DE9F0474FF04C080F4608FB0038CD
:101F400039B3DFF85890DFF858A045460024012641
:101F5000D8F8003006FA04F21A4215D06B6BD9F8A3
:101F60001420E96906FA03F313420DD0C9F81430BE
:101F70006A684AB109690B4210464FF00101DAF86C
:101F8000003008BF022198470134BC4205F1040526
:101F9000DED1BDE8F08700BF100E0020003C0140FC
:101FA0002410002000200121FFF7C2BF01200146BC
:101FB000FFF7BEBF02200121FFF7BABF03200121B6
:101FC000FFF7B6BF04200121FFF7B2BF052001468D
:101FD000FFF7AEBF06200146FFF7AABF2DE9F04F7D
:101FE00085B09B464B1C0C460546029200F088804B
:101FF00001F00F06731EC1F303100E2B47D8DFE864
:1020000003F04E57616B08080808087575757575FB
:1020100075003C4A4FF400074FF0000A4FF00509E5
:102020004FF01708019200F0F5FD072103902046BC
:1020300000F038FE019A40461146FEF781FC324915
:10204000324A41F82A704C2101FB09F1304F52F815
:10205000262057F801C02F4B85F8008001209040C2
:1020600007EB01084CEA000C0020C5F804902C7323
:10207000A86008EB820247F801C002991960039B2F
:10208000D361C2F804B0566305B0BDE8F08F4FF0DD
:10209000000AD146204A40274FF00608C2E71F4AEF
:1020A00080274FF0000A4FF001094FF00708B9E709
:1020B0001B4A4FF480774FF0000A4FF002094FF0AF
:1020C0000808AFE7174A4FF400774FF0000A4FF0C7
:1020D00003094FF00908A5E7134A4FF480674FF052
:1020E000000A4FF004094FF00A089BE70F4A4FF42B
:1020F00080774FF0010A4FF006094FF0280891E76A
:102100000846C1E7CD1F000800E100E070DC0008D0
:10211000100E002024100020A51F0008AD1F00088D
:10212000B51F0008BD1F0008C51F0008D51F000807
:10213000F8B50546007B6B680D490E4E00F00F04A4
:102140004C2202FB03F251F82430B158B418012795
:102150009F4004EB830321EA07070024B75040B2F5
:1021600021465C60DC615C6300F09CFDAC60F8BD06
:1021700070DC0008100E002072B1012920D0022965
:1021800019D1836823F00203012B2BD08160072132
:1021900090F90C0000F086BD01291BD002290AD15C
:1021A000836823F00203012B23D082600C2190F975
:1021B0000C0000F077BD0C2190F90C0000F072BD0E
:1021C0008368023B012B0DD98160062190F90C0038
:1021D00000F068BD8368023B012BE6D802238360D0
:1021E0000721E9E703238360082190F90C0000F040
:1021F00059BD83600621DFE7F0B4114B90F91970E7
:1022000006688568C468016942691E6001374FF03D
:1022100000065D609C60D9601A619E610AD090F9E9
:102220001820074801320CBF04220C22F0BC5A616E
:10223000FFF74CBD082202485A61F0BCFFF746BDCB
:1022400040110020F8B504460E46084634491546AC
:1022500000F02EFC33490746284600F029FC0146D1
:10226000384600F013FC411C206051D02E4B9842A0
:102270003CD003F58063984230D0A3F55043984298
:1022800024D03046264900F0DFFB2846254900F0DF
:10229000DBFB721C03D03046012100F033FD6B1CC8
:1022A00003D02846012100F02DFD00234FF41652E3
:1022B000A260E36023616361267665762046FFF7BE
:1022C0009BFF1A4A2368934218D0F8BD184B196C2B
:1022D000012241F4003119646260D2E7144B596C59
:1022E000052241F0200159646260CAE7104B596C25
:1022F000002241F0100159646260C2E70D4B0E48A4
:10230000214601241C601C22BDE8F84002F0DCB824
:102310000A480B49502200F039FB2068A6E700BFAD
:10232000D4E0000818DF000800100140004400401D
:1023300000380240281000207C110020B0DC00088A
:10234000CCDC000810B4044B44680448196040F821
:1023500024205DF8044B7047441000202C1000200E
:10236000026813689B06FCD5024B50681A60C0F3E4
:102370000800704740110020026813681B06FCD556
:10238000024BC1F3080151601A60704740110020F0
:102390000368034A18681360C0F34010704700BF19
:1023A0004011002010B507EE901A334A03681360FD
:1023B000F5EEC07AF1EE10FA88B043D4B7EE007AA9
:1023C000F4EE477AF1EE10FAC8BFF0EE477AD0ED9E
:1023D000026A90F90420B8EE667A002367EE277A45
:1023E0006024FCEEE77A0194C0ED037ACDED027A29
:1023F00003930493059306930793292A20D8DFE8D3
:1024000002F0342438301F343436342438301F1F5F
:102410001F3415321F24342434243830381F1F361B
:1024200015321F1F1F1F1F1F34243830042401A919
:1024300011482246FFF7EEFA21460F48FFF754FBFA
:1024400008B010BDDFED0D7AC1E7042401A92246D2
:102450000948FFF7DFFA21460748FFF70DFA08B0F1
:1024600010BD0C24F2E70824E1E70024EEE7002485
:10247000DDE70824EAE700BF481000200000000064
:10248000F8B58268254C0368236005460E46002A8D
:102490003ED007EE102AF8EE477A90ED037AF8EE78
:1024A000476AB7EE007AC6EEA77AF4EEC77AF1EE85
:1024B00010FAC8BF17EE107A2CDD196A41F211121A
:1024C0000A4042B9196A40F244420A401AB91A68ED
:1024D00022F001021A60FFF725FC114A114B116826
:1024E0000E48A3FB0121890C0023721E0139E26012
:1024F0002361A3606160FFF747FA28463946FFF77A
:1025000051FF2368AE601A6842F001021A60F8BDFC
:10251000DFED057A17EE907ACFE700BF4810002074
:10252000B001002083DE1B430000000038B50D46DB
:1025300004462E49284600F0BBFA431C206046D0D2
:102540002B4B984232D0B0F1804F20D0294B98428B
:1025500033D103F50D331A6C42F002021A64264B94
:10256000984205D103F570435A6C42F480225A64B4
:1025700028461E4900F068FA00232571A360E36035
:10258000204644F62061BDE83840FFF779BF1B4B79
:102590001A6C42F001021A64194B9842DFD103F51C
:1025A00074435A6C42F400325A64E1E703F59C33F9
:1025B0005A6C42F001025A64EEE7124B98420BD17A
:1025C00003F50C331A6C42F004021A64D0E70E488B
:1025D00000F0F2F92068B3E70C4B9842DCD103F528
:1025E00078435A6C42F480325A64C1E76CDF0008C9
:1025F0000000014000040040004801400038024053
:10260000004401400008004034DD00080040014063
:1026100006EE901AB8EEE67AD0ED026AF8EE667A27
:10262000C7EE277A17EE901AFFF7BCBE38B5002325
:10263000036043600A782F2A044601D0204638BD43
:102640004A78002AFAD0481C20604A782F2A14D0F1
:10265000B2B18D1C194600E052B125602A782F2AAC
:102660002B4601F1010105F10105F5D1013323608C
:1026700000F0F2FB6060204638BD19460346F5E7DE
:102680001146F5E70068704710B50446406828B168
:1026900000F000FC012801D1606810BD002010BDD1
:1026A000406808B528B100F0F5FBD0F1010038BF53
:1026B000002008BD10B50446406830B100F0EAFBC8
:1026C00018B9606808B1043810BD002010BD00BF03
:1026D0004068003018BF0120704700BF10B5044AA1
:1026E000044640F8182BFFF723FD204610BD00BF1D
:1026F00060DD000810B5054B044640F8183BFFF7B5
:1027000017FD204600F024FC204610BD60DD0008C7
:10271000012905D0022902D1443000F0C3BB704723
:10272000283000F0BFBB00BF70B5124B036000251E
:1027300004460E4605718560C560056145610576F4
:10274000C561056280F824502946283000F0A4FBBA
:10275000294604F1440000F09FFB31462346064A17
:1027600004F11800FFF73AFC201D314600F036F95D
:10277000204670BD60DD00081127000800F0FAB89F
:10278000A0F15C00FFF7FABF00F0F8B8A0F15C0020
:10279000FFF7FABF38B504461D4600F0BBF82946DE
:1027A00004F15C0000F06CF8054B03F1080103F143
:1027B000200254332160E2652366204638BD00BF05
:1027C00068DD000800207047F8B58E18B1420F464A
:1027D00005460FD00C4601E0A64209D02B6814F83C
:1027E000011B5B6A284698470130F5D1E01BF8BD14
:1027F000F01BF8BD0020F8BDF8B58E18B1420F46A9
:1028000005460FD00C4603E004F8010BA64207D0A2
:102810002B6828469B6A9847431CF5D1E01BF8BDFE
:10282000F01BF8BD0020F8BD002070470020704765
:10283000002070470020704710B5074B03F10802D5
:102840003C33044680E80C00406900F0EBFB204676
:1028500000F034FB204610BDC8DD0008A0F10400E4
:10286000FFF7EABF10B50446FFF7E6FF204600F089
:102870006FFB204610BD00BFA0F10400FFF7F2BFC0
:1028800010B584B0044600F049FB0B4B0B4903F133
:10289000080000223C3384E80900626101A8224656
:1028A00002F09CFA064901A800F0F2FD6061FEF713
:1028B00077FA204604B010BDC8DD000850DC0008DF
:1028C00010DE000810B50446406900F073FC606932
:1028D000BDE81040FEF768BA0EB430B582B005AB63
:1028E000044653F8045B4069019300F063FC2946F9
:1028F0006069019A06F074F902B0BDE8304003B097
:10290000704700BFC1EBC10100EB8100203000F037
:10291000C9BA00BFF8B50025124B036004460E4645
:1029200045608560C56005614561856105774577CE
:1029300029462030174600F0AFFA294604F13C0042
:1029400000F0AAFA251D4FF4165331463A46A36506
:102950002846FFF777FC284622460349FFF7F2FC9A
:102960002046F8BDF8DA0008052900080430FFF712
:102970000FBD00BF0430FFF7F3BC00BF10B504303B
:102980000C46FFF7F9FC204610BD00BF10B5084B00
:102990001B6882B0DC6800920B460246054920465F
:1029A00000F07EFD02B0BDE81040FDF7BFBF00BFE4
:1029B000E005002014DE00080FB400B5064B83B01C
:1029C00004AA1B6852F8041BD868019206F008F9A3
:1029D000012000F0D7FA00BFE005002038B50D4611
:1029E000044600F0DBF8013509D02046002100F054
:1029F000F1F820460021BDE8384000F0E7B838BDC6
:102A000038B50D46044600F0C9F8013510D094F9E8
:102A1000003001330DD02369A2881A80204601219D
:102A200000F0D8F820460021BDE8384000F0CEB8CC
:102A300038BD034803493522FFF7A8FFEBE700BF85
:102A400048DE000860DE0008431C10B5044619D0BB
:102A500091F90030581C04D10FE011F90C3F5A1CB9
:102A60000BD09C42F9D12046896800F01BF9204622
:102A70000021BDE8104000F045B90348BDE8104012
:102A8000FFF79ABF10BD00BFD0DE0008884208B52E
:102A90000AD0431C07D0013106D00448FFF78CFF51
:102AA0004FF0FF3008BD084608BD00BFE4DE000857
:102AB00008B5431C0DD091F900305A1C04D109E02F
:102AC00011F90C3F5A1C05D09842F9D14868411CB5
:102AD00000D008BD0248FFF76FFF4FF0FF30F8E766
:102AE000F8DE000838B5054600F046F9044600F067
:102AF00043F9001BA842FAD338BD00BF07EE100A05
:102B0000DFED047A67EE277AFDEEE77A17EE900A9A
:102B1000FFF7E8BF002474494FF47A7303FB00F019
:102B2000FFF7E0BF70B500F049F90E4C0E4E236878
:102B300073B11D6800F020F9281A00280CDC216808
:102B400032688B682360002AF2D048689047EEE72D
:102B5000BDE8704000F028B92368BDE870401868EF
:102B600000F018B98410002088100020431C10B514
:102B7000044608D02046002100F094F804F00F0429
:102B80000120A04010BD034803492722FFF7FEFEA5
:102B9000F0E700BF28E100083CE1000870B50446FA
:102BA0004B1C0D46217010D0C1F3031000F032F819
:102BB00006462846FFF7DAFF06F1100206F1180371
:102BC0001A366060A260E360266170BD90F9000073
:102BD00000F098B838B5054690F90000431C0C4643
:102BE0000BD0012C04D00021BDE8384000F05AB8C9
:102BF0002146BDE8384000F055B804480449472252
:102C0000FFF7C4FE95F90000EBE700BF48DE0008BF
:102C10003CE1000808B507282FD8DFE800F00B12C8
:102C20001920272E2E04174B17481A6B42F08002EA
:102C30001A6308BD134B15481A6B42F001021A6360
:102C400008BD104B12481A6B42F002021A6308BD0D
:102C50000C4B10481A6B42F004021A6308BD094B72
:102C60000D481A6B42F008021A6308BD054B0B4869
:102C70001A6B42F010021A6308BD0948FFF79CFE68
:102C8000002008BD00380240001C02400000024045
:102C90000004024000080240000C02400010024004
:102CA000D8E1000830B5431C87B005460C461CD05F
:102CB000C5F30310FFF7AEFF05F00F0504F00F0298
:102CC00001210D4B01FA05F553F82230019503223D
:102CD000C4F3021501A9C4F3C31402930395059428
:102CE0000492FEF7CBF807B030BD044804497D22BA
:102CF000FFF74CFEDCE700BFA4E1000828E1000874
:102D0000FCE1000838B5431C04460D4618D0C4F356
:102D10000310FFF77FFF04F00F04C268022D4FEA93
:102D200044044FF0030198BFA54001FA04F422EADD
:102D30000404C460C26888BF00251543C56038BD5F
:102D400002480349A222FFF721FEE0E728E100083C
:102D5000FCE10008054B186800B17047044A0549BA
:102D6000116001221A60FDF733BE00BFC8100020B9
:102D70008C100020000C004008B5044B1B680BB9F8
:102D8000FFF7E8FF024B586A08BD00BFC8100020DB
:102D9000000C0040034B1B685863DA6842F00202E3
:102DA000DA6070478C100020034B1B68DA6822F051
:102DB0000202DA60704700BF8C100020024B1B68D3
:102DC0006FF002021A6170478C1000208368094A74
:102DD000026053B1084B1A68824201D106E01A46DC
:102DE00053688342FBD143685360704742681A605E
:102DF000704700BF68E20008CC10002083680C4ACE
:102E000010B50446026053B10A4B1A68904201D1D2
:102E10000AE01A4653689C42FBD16368536020461F
:102E200000F096F8204610BD42681A60F7E700BF30
:102E300068E20008CC100020054B0273002281607C
:102E40000360426019B1034B1A6842601860704712
:102E500068E20008CC1000200D4B70B51C680646D7
:102E60000D4614B912E0646884B1A36831462A465D
:102E70001846002BF7D002F0F1F90028F3D1A06832
:102E800002F0BEF9A842EED1204670BD002070BD10
:102E9000CC100020007B7047002280E80600826191
:102EA000704700BF08B5036801460BB1984708BDDD
:102EB000406810B18B690831984708BD10B5074BC1
:102EC000044603F108023433226040F8043FFFF760
:102ED0007DFF2046FDF7F0FD204610BD70E20008A2
:102EE000A0F10400FFF7EABF094B10B5044603F157
:102EF00008023433226040F8043FFFF767FF2046A2
:102F0000FDF7DAFD204600F023F8204610BD00BF93
:102F100070E20008A0F10400FFF7E6BF10B5074B10
:102F20000446002240F8043BFFF786FF044B03F100
:102F30000802343384E80C00204610BD28DC000869
:102F400070E2000803460846194600F00BB800BFBF
:102F500008B100F0CDBF704701460020024603468D
:102F600005F050BF10B40C4613460146224602201D
:102F70005DF8044B05F046BF014B1868704700BF71
:102F8000E005002008B50021044605F099FF044B38
:102F90001868C36B03B1984720460AF099FD00BF3B
:102FA000B0E2000870B50C46054631B110B1836B34
:102FB000002B2FD0B4F90C300BB9002070BD28467F
:102FC000214600F037F8E36A064633B12846E16946
:102FD00098470028B8BF4FF0FF36A3891B061CD4C2
:102FE000216B41B104F14003994202D0284600F020
:102FF000B9FA00232363616C21B1284600F0B2FACC
:103000000023636400F0E4F90023A38100F0E2F9F7
:10301000304670BD00F01CF9CCE72846216900F06D
:10302000A1FADDE7024B01461868FFF7BBBF00BFFE
:10303000E00500208B899AB22DE9F0410D46110779
:1030400080463CD46A6843F40063002AAB8159DDB2
:10305000AC6A002C4BD09BB203F48052002192B298
:10306000D8F80060C8F80010002A4FD02A6D5F071A
:1030700005D569682B6B521A0BB1EB6BD21A40461F
:10308000E9690023A047441C4AD0AA892B692B6018
:1030900022F400639BB200226A60DA04AB814CD454
:1030A000296BC8F8006011B305F14003994202D0C2
:1030B000404600F057FA00202863BDE8F0812E69F1
:1030C000AEB12C682E6091070CBF6B690023A41B66
:1030D000AB600AE0324623466F6AE9694046B8476A
:1030E0000028C0EB0404064404DD002CF2DC0020C0
:1030F000BDE8F081AB8943F04003AB814FF0FF3076
:10310000BDE8F081EA6B002AA2DCF0E7012340462B
:10311000E969A047431C02461ED0AB89AC6AA6E70A
:10312000D8F800305BB9A9896B6021F400639BB2C9
:103130002A69AB81DB042A60B2D52865B0E71D2B74
:1031400001D0162B19D1AA892B692B6022F40062B9
:103150000023AA816B60A3E7D8F80030002BDCD0F5
:103160001D2B07D0162B05D0AB8943F04003AB8154
:10317000BDE8F081C8F80060B9E7AB8943F04003CF
:10318000AB81BDE8F08100BF10B5044682B008B144
:10319000836B53B1B1F90C0008B902B010BD2046E1
:1031A00002B0BDE81040FFF745BF019100F050F8B4
:1031B0000199EFE720B1054B01461868FFF7E4BF1E
:1031C000034B0449186800F0CBBD00BFE0050020A8
:1031D000B0E200088931000838B50D4B1D6804467F
:1031E0000DB1AB6B4BB16368013B002B636008DB37
:1031F00023685A1C2260187838BD284600F028F849
:10320000F1E728462146BDE8384001F033BD00BF54
:10321000E0050020014900F0A3BD00BFA52F000874
:1032200070B54B1E682505FB03F50E4605F17401CC
:1032300000F066FE044640B100210C30666005F1E6
:1032400068022160A06001F039FA204670BD00BF1D
:103250002DE9F04F846B83B00746002C65D145689B
:103260003348F8630423032107F53B72C7F8E412DF
:10327000C7F8E822C7F8E04205F15C00AB812C609A
:103280006C60AC606C66EC812C616C61AC61214659
:10329000082201F013FABE68DFF898B0DFF898A0B2
:1032A000DFF89890DFF89880ED6101230922C5F8D6
:1032B00020B0C5F824A0C5F82890C5F82C80214678
:1032C000F381B28134607460B46074663461746197
:1032D000B461082206F15C00019301F0EFF9FD688A
:1032E000F66112200222C6F820B0C6F824A0C6F863
:1032F0002890C6F82C802146A881EA812C606C6059
:10330000AC606C662C616C61AC6105F15C000822FC
:1033100001F0D4F9019BED61C5F820B0C5F824A0F7
:10332000C5F82890C5F82C80BB6303B0BDE8F08FCA
:1033300015320008814E0008A94E0008E14E000831
:10334000014F0008214B70B51D68AB6B0646002B82
:103350002CD005F538756B68AC68013B05D521E0CC
:10336000013B5A1C04F168041CD0B4F90C20002A5B
:10337000F6D1002501234FF6FF72E281A381656635
:103380002560A560656025616561A561294604F138
:103390005C00082201F092F9256365636564A56409
:1033A000204670BD2B682BB11D46D4E72846FFF799
:1033B0004FFFCEE730460421FFF732FF286008B107
:1033C0000546C8E70C23336070BD00BFB0E20008BB
:1033D000704700BF704700BF38B5094D094C641BEA
:1033E000A41018BF05EB840505D0013C55F8043D39
:1033F0009847002CF9D1BDE838400AF071BB00BFF6
:10340000680A00206C0A0020F0B583B00F46114610
:1034100001AA064606F090FD0546E8B13046FFF7E2
:1034200091FF0446C0B139463046019A4FF4DB7330
:1034300001F092F900281BDB114B124F1249134A7D
:10344000E362EB05E081A581E46127626162A2622B
:1034500005D4204603B0F0BD002003B0F0BD3046D7
:1034600021460022022300F04BF9204603B0F0BDB4
:103470000025FFF7ADFFA581FFF7ACFF2846E9E780
:10348000014F0008814E0008A94E0008E14E0008D7
:10349000024B0A4601461868FFF7B6BFE005002058
:1034A0000EB410B583B005AB064C53F8042B019352
:1034B0000146206804F0ECF803B0BDE8104003B00A
:1034C000704700BFE0050020F8B5234D0F460446C5
:1034D00001F03EF9AB685E6826F00306F11B01F6C9
:1034E000EF7121F47F6121F00F01A1F58057B7F54D
:1034F000805F07DB2046002101F0D6FBAB68334438
:10350000984204D0204601F025F90020F8BD20465D
:10351000794201F0C9FB01300DD0104BAA6819683F
:10352000F61B46F001062046C91B5660196001F0E3
:1035300011F90120F8BD2046002101F0B5FBAB6870
:10354000C21A0F2ADEDD064D04492D6842F0010241
:10355000401B5A600860D5E7E4050020DC1000201D
:10356000F00900202DE9F0410D460646002955D00E
:1035700001F0EEF855F8041CDFF874C121F00103E6
:10358000A5F10804E218DCF808005768904227F01B
:10359000030769D011F00101576032D00021D01922
:1035A0004068C00706D43B44906800294ED0D268DA
:1035B000C260906043F001026260E350E1B9B3F58C
:1035C000007F2DD35A0A042A6AD89809383041005E
:1035D0000CEB810C4649DCF80820624566D0516846
:1035E00021F003018B4202D292689445F7D1D3684F
:1035F000E360A2609C60D4603046BDE8F04101F019
:10360000A9B855F8085C641B0CF10808A06840458F
:103610002B4443D0E568C560A860C0E7BDE8F081F1
:10362000DB080CEBC3020125DCF804009168A16003
:103630009B1005FA03F31843E260CCF80400946091
:103640003046CC60BDE8F04101F084B8294DA84275
:10365000ADD143F00102CCF81440CCF81040E0604A
:10366000A0606260E350C7E71F44CB0707D455F85A
:10367000083CE41A1F44A268E368D3609A601E4BBA
:103680001B6847F001029F426260CCF80840B3D348
:103690001A4B30461968FFF717FFADE701217EE7A7
:1036A000142A0CD802F15B00410091E74B688010AE
:1036B000012505FA00F003434B60134698E7542AAE
:1036C00003D8180B6E30410082E7B2F5AA7F03D809
:1036D000D80B773041007BE740F254518A4203D83F
:1036E000980C7C30410073E7FC217E2070E700BF1E
:1036F000E4050020EC050020EC090020D810002093
:1037000000F000B82DE9F04F0C4691B091461E46EE
:10371000054610B1836B002B72D0A38903F4847328
:10372000B3F5847F74D0A76A002F00F04B81012E7F
:103730004AD0022E08D03EB116232B604FF0FF383E
:10374000404611B0BDE8F08F4FF0000A2369D04623
:10375000002B00F02181A08940F61A0381B20B40B2
:1037600043B949055FD49A4B9F4200F0028140F46F
:103770000060A08128462146FFF706FD804600280C
:10378000DCD14A4633462846E169B8470130D5D0F6
:10379000216B41B104F14003994202D02846FFF762
:1037A000E1FE00232363A28923692360002122F420
:1037B0000263A381616004F15C00082200F07EFFD7
:1037C000404611B0BDE8F08F28462146FFF7DCFCEB
:1037D000A38903F4805292B2002A00F0BF80D4F88B
:1037E00050805E0763D4180740F1B68022682369D1
:1037F0000AB1D21A9044C1444FF0010A0026A7E74B
:10380000FFF726FDA38903F48473B3F5847F8AD17F
:1038100028462146FFF7B8FC85E7A2894FF480636C
:103820001A43A281E364002E4CD1CB46BAF1000FBB
:1038300057D1A389DA0440F1B480206D6268216B0E
:10384000C2EB0008002900F0B580D4F83CE0CEEBD4
:103850000808A36B206990441B1AC3EB0808734443
:10386000C34545DB08EB0302934541D2C8EB0B0887
:103870004044C8EB030384E8090041B104F140036C
:10388000994202D02846FFF76DFE00232363A389E7
:1038900023F02003A38104F15C000021082200F042
:1038A0000DFF4FF00008404611B0BDE8F08F626890
:1038B000236BC2EB0808002B4ED0E26B2369C2EBEE
:1038C000080898E72846B4F90E1001AA00F082F81B
:1038D00000287FF44FAF059B09EB030BBAF1000FF3
:1038E000A7D0216B6268002964D0D4F83CE0B0E72F
:1038F000E36CE1695B420BEA030842462846002379
:10390000B84701303FF436AF2369216B23600023B1
:10391000636041B104F14003994202D02846FFF7A9
:1039200021FE00232363A389BBEB080B23F02003B4
:10393000A381B0D02846214601F012F900287FF477
:1039400019AF63689B453FF615AF2268CBEB0303C5
:103950005A4484E80C009EE723694CE73346284626
:10396000E169B847B0F1FF3F80463FF4E7AEA38975
:1039700037E7B4F90E100029FFF6F9AE284601AA80
:1039800000F028F830B9029B03F47043B3F5004F00
:103990003FF443AFA089EAE62846214600F030FA1A
:1039A000D9E6012352462846E169B847431C7FF413
:1039B00045AFDFE6236820691B1AC3EB0808002126
:1039C00013444DE71D232B604FF0FF38B8E600BFCE
:1039D000E14E000838B5084C00230546084611465C
:1039E0002360FDF7A9F9431C00D038BD2368002BE4
:1039F000FBD02B6038BD00BF981100202DE9F04F9F
:103A0000936883B0164681460C462BB38B89190701
:103A100026D5226922B303F0020292B23568002A49
:103A20002CD04FF0000ADFF8E8B2D046D84534BFBA
:103A300043465B4652464846B8F1000F4FD0E16915
:103A4000676AB847002856DDB3681B1A8244C0EB8A
:103A50000808B360002BE9D1002003B0BDE8F08F67
:103A60004846214605F06CF9002840F04881A389BA
:103A7000356803F0020292B2002AD2D113F0010A93
:103A800042D1D046B8F1000F23D09A05A76876D569
:103A9000B845C0F0A48013F4906F40F0B280206865
:103AA000BB4651465A4600F0A9FDA2682168D21BC8
:103AB00001EB0B03A26023604246B3689B1A924459
:103AC000C2EB0808B360002BC6D0A389B8F1000F81
:103AD000DBD1D5F800A0D5F804800835D2E7D5F8B9
:103AE00000A0D5F804800835A0E748462146FFF736
:103AF0004BFB002859D0A38943F040034FF0FF301F
:103B0000A38103B0BDE8F08F9246019293469046A0
:103B1000B8F1000F2BD0019F002F64D020682169DD
:103B2000D4F808C06269C24534BF53464346884250
:103B30001F4603D99444634500F3AE80934236DBBD
:103B40001346676AE16948465A46B847071ED2DD00
:103B5000BAEB070A3AD0B368DB1BBB44C7EB0808D3
:103B6000B360002B3FF478AFB8F1000FD3D100273A
:103B7000D5F800B0D5F8048001970835C8E720686B
:103B80002369984202D86369984572D2B84538BF14
:103B900047463A46514600F031FDA3682268DB1BD8
:103BA0003A44A3602260002B9FD03A4685E71A462C
:103BB0005946009300F022FD009BA1682268C91AB3
:103BC000BAEB070A1344A1602360C4D148462146DA
:103BD000FFF7DAFA00288ED1CDF804A0BBE7206801
:103BE0004746C3465DE758460A21424600F024FC9A
:103BF00000287FD000F1010A0127CBEB0A0A0197C8
:103C00008CE7226821696769C1EB020C07EB470763
:103C10000CF1010207EBD77742447F10974234BF83
:103C200017463A465B054FD511464846CDF800C0C9
:103C300000F066F9DDF800C08346002862D06246D5
:103C40002169CDF800C000F03FFCA289DDF800C07A
:103C500022F4906242F08002A2810BEB0C00CCEBCC
:103C60000702C4F810B067612060A2604746C346EF
:103C700017E76FF00042904538BF424692FBF3F2DF
:103C800002FB03F3676AE16948465246B8470028D9
:103C90007FF731AF024610E762465946CDF800C0C3
:103CA00000F0ACFCDDF800C02368634423604846A4
:103CB0002146CDF800C0FFF767FADDF800C0002804
:103CC0007FF419AF674643E74846CDF800C000F0DF
:103CD00057FDDDF800C083460028BED14846216963
:103CE000FFF740FCA3890C2223F080039BB2C9F8A4
:103CF000002001E7012708F1010A01970EE74FF0C4
:103D0000FF30AAE60C23C9F80030A389F4E600BF0F
:103D100000FCFF7F2DE9F04110F5387788461AD076
:103D200000267D68BC68013D0FD4A389012B05F1F5
:103D3000FF3506D9B4F90E300133204601D0C04713
:103D400006436B1C04F16804EFD13F68002FE8D1F3
:103D50003046BDE8F0813E463046BDE8F08100BF08
:103D60002DE9F84310F53876804689461BD00027A8
:103D70007568B468013D10D4A389012B05F1FF35A6
:103D800007D9B4F90E3001332146404601D0C84767
:103D900007436B1C04F16804EED13668002EE7D1AE
:103DA0003846BDE8F88337463846BDE8F88300BF9B
:103DB00070B50F4E0F4D761BB61007D0043D002492
:103DC000013455F8043F9847A642F9D10A4E0B4DED
:103DD000761B09F07FFEB61008D0043D00240134A4
:103DE00055F8043F9847A642F9D170BD70BD00BF99
:103DF0005C0A00205C0A0020680A00205C0A00209F
:103E0000F0B58B899AB2960791B00C46054637D427
:103E1000B1F90E10002917DB01AAFFF7DBFD00281E
:103E200010DB029B03F47043B3F500514F424F4146
:103E3000B3F5004F2CD0A38943F40063A3814FF462
:103E400080660BE0A3899AB212F0800F43F40063FE
:103E5000A38114BF40264FF48066002728463146D0
:103E600000F04EF8A389002829D01B4AEA6343F0EA
:103E70008003A381206020616661A7B911B0F0BD05
:103E800001F1430301220B600B614A6111B0F0BDE7
:103E9000124AA36A9342CED1A3894FF4806633437A
:103EA000A381E664DAE72846B4F90E1006F07CF840
:103EB0000028E3D0A38943F00103A381DEE79A053C
:103EC000DCD404F1430243F002030121A381226008
:103ED00022616161D2E700BF15320008E14E00089F
:103EE000024B0146186800F00BB800BFE005002047
:103EF000024B01461868FFF735BB00BFE005002004
:103F00002DE9F04F01F10B05162D83B0064627D998
:103F100035F0070527D4A94225D8304600F018FC13
:103F2000B5F5FC7F26D2C14F4FEAD50C07EBCC0389
:103F3000DC689C4200F0D2816368E268A16823F0EB
:103F40000303234430465D68CA6045F00105916073
:103F50005D6000F0FFFB0834204603B0BDE8F08F41
:103F60001025A942D9D900240C232046336003B080
:103F7000BDE8F08F5FEA552C00F08A80BCF1040F99
:103F800000F260814FEA951C0CF1380C4FEA4C01AD
:103F9000A64F07EB8101CC68A14205D10CE0002BB4
:103FA0007ADAE468A14207D0626822F00302531B68
:103FB0000F2BF4DD0CF1FF3C0CF1010C9B4B3C6929
:103FC00003F1080E744500F07E81616821F0030161
:103FD0004A1B0F2A00F36481002AC3F814E0C3F8D7
:103FE00010E06ADAB1F5007F80F03A81C90803EB8E
:103FF000C1004FEAA1085A688168A1604FF0010929
:1040000009FA08F848EA0202E0605A608460CC606D
:104010004FEAAC030120984090425BD8024206D19F
:104020002CF0030C400002420CF1040CFAD007EB18
:10403000CC084446E146E3689C4207D145E1002AAA
:1040400080F25681DB689C4200F03F81596821F084
:1040500003014A1B0F2AF2DD1C46D3F80CC054F8AA
:10406000088F591945F0010942F00105C3F8049081
:104070003046C8F80CC0CCF8088079613961C1F8C5
:104080000CE0C1F808E04D608A5000F063FB63E784
:104090007E214FF03F0C7BE72244E3685068A16823
:1040A00040F00105CB6030469960556000F052FB4E
:1040B0000834204603B0BDE8F08F214430464B68F9
:1040C00043F001034B6000F045FB0834204603B089
:1040D000BDE8F08FBC68636823F00309A94504D3E9
:1040E000C5EB09030F2B00F39180514B514A19681E
:1040F0001368013305EB010A04EB090B00F0618141
:104100000AF5805A0AF10F0A2AF47F6A2AF00F0A88
:1041100030465146019200F0C7FDB0F1FF3F8046A6
:10412000019A00F00081834500F2FA80DFF810C1A7
:10413000DCF80030C3455344CCF8003000F04A812D
:1041400012683C4901321BBFCBEB080B5B44C1F842
:104150000080CCF8003018F0070300F01381C3F1A1
:104160000802C3F5805390440833C244CAF30B0AD3
:10417000CAEB030A51463046CDF804C000F094FD66
:10418000431CDDF804C000F03581C8EB0002524446
:1041900042F00102DCF80030C7F808805344BC420A
:1041A000C8F80420CCF80030DFF894A015D0B9F19D
:1041B0000F0F40F2EA806168A9F10C0222F00702B9
:1041C00001F0010EA118052042EA0E0E0F2AC4F8D4
:1041D00004E04860886000F21181174ABC681168E9
:1041E0008B4288BF1360154A11688B4288BF1360E9
:1041F000626822F003029542C5EB020301D80F2B3F
:1042000004DC304600F0A6FA0024A5E6621943F06B
:10421000010345F0010565603046BA60536000F067
:1042200099FA0834204603B0BDE8F08FE405002079
:10423000D8100020F0090020D4100020D010002059
:10424000DC100020BCF1140F61D9BCF1540F00F256
:104250008F804FEA153C0CF16E0C4FEA4C0197E64B
:104260004B0A042B58D9142B00F2AE8003F15B02E9
:10427000500007EB8000DFF8BC818368834200F0C8
:104280008A805A6822F00302914202D29B689842C7
:10429000F7D1D9687A68E160A3608C60DC60B7E62A
:1042A000611942F0010745F001056560304659612A
:1042B0001961C1F80CE0C1F808E04F608A50083479
:1042C00000F048FA48E65A68A2E609F1010919F037
:1042D000030F04F108047FF4AEAE2DE004F10803EF
:1042E0006469A34208BF0CF1020C3FF467AE23E6F9
:1042F00019441C464868DB6854F8082F40F0010553
:104300004D603046D3609A6000F024FA24E60CF148
:104310005B0C4FEA4C013BE68A0938325000A8E7B3
:10432000BC423FF403AFBC68626822F0030262E75C
:10433000D8F8008098457BD11CF0030FA8F1080342
:104340000CF1FF3CF4D17B6823EA00037B60400062
:1043500098423FF6BFAE00283FF4BCAE0342CC46C5
:104360007FF465AE400003420CF1040CFAD05EE627
:10437000BCF5AA7F1AD84FEAD53C0CF1770C4FEA6E
:104380004C0105E64FF48053EFE60123C8F80430F2
:10439000444600222FE791100120D8F8042000FAAB
:1043A00001F10A43C8F80420194674E740F2545357
:1043B0009C451BD84FEA954C0CF17C0C4FEA4C0104
:1043C000E6E50AF1100AA3E6542B1FD80A0B6E3259
:1043D00050004EE7CBF30B0100297FF4B1AE0AEB9E
:1043E0000901BA6841F001015160F6E6FC214FF085
:1043F0007E0CCDE501224FF0000ACBE604F1080166
:104400003046FFF7AFF8DAF80030E6E6B3F5AA7FFA
:1044100003D8CA0B773250002BE740F25452934234
:1044200003D88A0C7C32500023E7FC207E2220E750
:104430007B688CE7E4050020830770B4C9B23FD0E5
:10444000541E2AB303788B4223D0431C04E0FCB1F2
:1044500004788C421DD0144613F0030F184604F163
:10446000FF3203F10103F2D1032C14D8651E4CB3C3
:1044700003788B420DD0421C002302E004788C426A
:1044800007D0AB42104603F1010302F10102F5D15E
:10449000002070BC704741EA0126034646EA064602
:1044A0001846043302687240A2F1013525EA02027F
:1044B00012F0803FDAD1043C032C1846F0D8D5E73F
:1044C0001446D1E72046E4E7844641EA000313F0AE
:1044D00003036DD1403A41D351F8043B40F8043B0B
:1044E00051F8043B40F8043B51F8043B40F8043BCE
:1044F00051F8043B40F8043B51F8043B40F8043BBE
:1045000051F8043B40F8043B51F8043B40F8043BAD
:1045100051F8043B40F8043B51F8043B40F8043B9D
:1045200051F8043B40F8043B51F8043B40F8043B8D
:1045300051F8043B40F8043B51F8043B40F8043B7D
:1045400051F8043B40F8043B51F8043B40F8043B6D
:1045500051F8043B40F8043B403ABDD2303211D30D
:1045600051F8043B40F8043B51F8043B40F8043B4D
:1045700051F8043B40F8043B51F8043B40F8043B3D
:10458000103AEDD20C3205D351F8043B40F8043B0D
:10459000043AF9D2043208D0D2071CBF11F8013B0B
:1045A00000F8013B01D30B8803806046704700BFD1
:1045B000082A13D38B078DD010F003038AD0C3F1E0
:1045C0000403D21ADB071CBF11F8013B00F8013BC2
:1045D00080D331F8023B20F8023B7BE7043AD9D381
:1045E000013A11F8013B00F8013BF9D20B78037056
:1045F0004B7843708B788370604670478842F0B484
:1046000010D98C18A0420DD28518531E42B12146F4
:104610002A4611F8014D02F8014D013B5C1CF8D10E
:10462000F0BC70470F2A3FD940EA01039B073FD1F6
:10463000A2F110073F0900EB071610360C4603469F
:1046400025681D6065685D60A5689D60E568DD6042
:104650001033B34204F11004F2D17B1C02F00F0CB2
:104660001B01BCF1030F1944034423D90E461D4618
:104670006446043C56F8047B45F8047B032CF8D8C8
:10468000ACF1040424F00304043402F003022344D4
:104690002144002AC4D01A4411F8014B03F8014BFD
:1046A0009342F9D1F0BC70470346002AF3D1B7E733
:1046B0000346F0E76246002AEDD1B1E7F0B4840783
:1046C00043D0541E002A3ED0CDB2034603E0621E02
:1046D000002C38D0144603F8015B9A07F7D1032C5D
:1046E0002AD9CDB245EA05250F2C45EA054515D94D
:1046F000A4F110073F0903F1100606EB07161A464E
:10470000156055609560D5601032B242F8D104F062
:104710000F040137032C03EB07130DD91E46224665
:10472000043A032A46F8045BFAD8221F22F0030257
:104730000432134404F003042CB1C9B21C4403F83E
:10474000011BA342FBD1F0BC704714460346C6E7E9
:10475000704700BF704700BF70B5084C0646002583
:10476000084611461A462560FCF7DEF9431C00D0C6
:1047700070BD2368002BFBD0336070BD9811002002
:104780002DE9F04F0C4683B090468146002900F099
:10479000E280FFF7DDFF08F10B0654F8043C162E0B
:1047A00023F00305A4F108074BD810210E46B045AD
:1047B0004CD88D4278DADFF890B3DBF808E078194E
:1047C000864500F0CE80426822F0010C8444DCF87B
:1047D00004C01CF0010F7AD000221046DB0700F164
:1047E000928054F8083CC3EB070ADAF8043023F04F
:1047F00003032B4488B3704500F0ED8002EB030EF9
:104800008E452ADBC36882685746D3609A6057F8A2
:10481000081FDAF80C30CB602A1F242A996000F2B6
:104820002681132A40F2B3802368CAF808306368EF
:10483000CAF80C301B2A00F2308108340AF1100348
:10484000A6E026F00706002E3146B0DA0C23002041
:10485000C9F8003003B0BDE8F08F8B4253DB5746F8
:10486000DAF80C1057F8080F2A1F242AC160886054
:1048700000F20981132A40F204812168CAF8081065
:104880006168CAF80C101B2A00F21C8108340AF176
:1048900010022168116061685160A16891601D4635
:1048A000DAF804303C465746AA1B0F2A03F00103EE
:1048B00019D82B433D447B606B6843F001036B6068
:1048C0004846FFF747FF204603B0BDE8F08F22F0CF
:1048D000030202EB050C8C4580DBC26881686546EB
:1048E000CA609160E0E7B91942F001001E430A4432
:1048F0007E604860536843F00103083153604846C6
:10490000FEF730FEDCE741464846FFF7F9FA8046FD
:10491000D0B154F8043C23F001023A44A0F108015C
:10492000914200F09E802A1F242A50D8132A23D8AF
:1049300003462246116819605168596092689A606E
:1049400021464846FEF70EFE4846FFF703FF404665
:1049500003B0BDE8F08F114603B0BDE8F04FFFF79C
:10496000CFBADEF8042022F00302501906F1100C31
:10497000604519DA704631E7236803606368436075
:104980001B2A63D800F1080304F10802D2E73B4672
:1049900022681A6062685A60A2689A603C4675464E
:1049A000DAF8043057467FE73744831B43F00103AE
:1049B000CBF808707B6054F8043C03F001031E43FD
:1049C000484644F8046CFFF7C5FE20467CE72146C4
:1049D000FFF714FEB4E702EB030C06F11002944556
:1049E000FFF63BAF5746DAF80C3057F8081F2A1F7E
:1049F000242ACB60996000F28780132A78D9236833
:104A0000CAF808306368CAF80C301B2A00F28580A7
:104A100008340AF1100322681A6062685A60A268BA
:104A20009A600AEB0603C6EB0C0242F00102CBF8D7
:104A300008305A60DAF8043003F001031E43484698
:104A4000CAF80460FFF786FE38463DE7A368836036
:104A5000E368C360242A2CD000F1100304F1100293
:104A600068E750F8042C22F0030215441CE72146A5
:104A7000384675463C46FFF7C1FD5746DAF8043024
:104A800012E73A4605E7214638461D463C46FFF701
:104A9000B5FD5746DAF8043006E7A368CAF81030C7
:104AA000E368CAF81430242A18D010340AF1180325
:104AB0006EE7236903616369436104F1180200F141
:104AC000180337E7A168CAF81010E168CAF8141093
:104AD000242A0FD010340AF11802DAE62369CAF842
:104AE00018306369CAF81C3018340AF120034FE704
:104AF0003B4690E72269CAF818206269CAF81C2070
:104B000018340AF12002C4E621463846CDF804C024
:104B1000FFF774FDDDF804C083E7A368CAF810301E
:104B2000E368CAF81430242A03D010340AF11803B9
:104B300071E72369CAF818306369CAF81C30183461
:104B40000AF1200367E700BFE4050020838903F032
:104B50000903092B01D000207047FEF72BBB00BFD3
:104B6000F8B50C46054610B1836B002B43D0A289E3
:104B700093B2990407D4636E42F4005223F40053B5
:104B80006366A28193B200219F06616030D45E0704
:104B900021D5216B61B104F14003994202D028462E
:104BA000FEF7E0FCE36B636000202063002B3FD145
:104BB0002369002B4CD0A689B7B2BB071ED122694E
:104BC00022602846E169256A6369A8470028606079
:104BD00009DD0020F8BDD8063FD519072BD442F0D7
:104BE0000402A281E4E71AD1A38943F02003A38140
:104BF0004FF0FF30F8BDFEF72BFBB8E71B4B1C490D
:104C000018680123A38107F00907FFF783F8092F2C
:104C1000A681D4D128462146FEF70CFACFE7A28917
:104C2000002342F04002A28163604FF0FF30F8BDE4
:104C3000A36B2360F8BD28462146FEF7A5FA00289D
:104C4000D6D1A289A06022F00802A06192B2C6E784
:104C500028462146FFF7D4F8ADE742F04002092389
:104C60002B604FF0FF30A281F8BD00BFB0E200081A
:104C70004D4B000838B50C46054608B1836B63B14F
:104C800028462146FFF76CFF50B923686268591C1B
:104C9000013A84E80600187838BDFEF7D9FAEFE744
:104CA0004FF0FF3038BD00BF38B5074C0023054634
:104CB00008462360FCF760F8431C00D038BD236829
:104CC000002BFBD02B6038BD9811002000290CBFB1
:104CD000022200224FF4806300F000B82DE9F04179
:104CE0003C4C25688846044616461F4615B1AB6BFA
:104CF000002B4FD0022E30D8002F2EDB2846214625
:104D0000FEF742FAA38900226260A2611A0628D443
:104D100023F083039BB2022EA3812DD0B8F1000FA4
:104D20003CD0012E13D09BB203F008002A4AEA635C
:104D300080B2C4F80080C4F81080676178B113F0C5
:104D4000030F18BF0027A7600020BDE8F08143F0E3
:104D500001037A42A381A261E5E74FF0FF30BDE88D
:104D6000F08128462169FEF7FDFBA38923F0830328
:104D70009BB2022EA381D1D1002004F1430243F063
:104D8000020300250121A381A560226022616161E7
:104D9000BDE8F0812846FEF75BFAABE7002F08BFBD
:104DA0004FF480673846FFF79BF8804628B1A38907
:104DB00043F080039BB2A381B3E74FF48060FFF719
:104DC0008FF8804618B9A3894FF0FF30D5E74FF42C
:104DD0008067ECE7E0050020153200080EB4F0B55E
:104DE0009CB021AB0F4953F8042B019305466FF09B
:104DF0000044086802954FF402774FF6FF7602A947
:104E00000695ADF8147004940794ADF8166000F0A0
:104E10007FFA029B00221A701CB0BDE8F04003B07C
:104E2000704700BFE00500200EB4F0B59CB021AC87
:104E30004FF4017254F8046BADF814200290069000
:104E400000F0DEF90C4B0194054632460B4F186812
:104E5000039523464FF6FF76002402A907950A978B
:104E60000E941394ADF8166001F0D2FC1CB0BDE8AE
:104E7000F04003B0704700BFE0050020A54E0008D9
:104E800010B50C46B1F90E1005F060FD002803DBEB
:104E9000236D0344236510BDA38923F48053A381AC
:104EA00010BD00BF002070472DE9F0410C468989F4
:104EB0001D46CB051646074606D5B4F90E1000224E
:104EC000022305F09FF8A18921F48051A181384681
:104ED000B4F90E1032462B46BDE8F04103F01CBF7A
:104EE00010B50C46B1F90E1005F08CF8A389421CE0
:104EF0000EBF23F4805343F480532065A38110BD7B
:104F0000B1F90E1004F054B80000000000000000D9
:104F10000000000000000000000000000000000091
:104F2000A2EB0300704700BF02780B78012A28BF6C
:104F30009A42F5D16DE9044540EA0104CDE90267E2
:104F40006FF0000C4FEA447212B380EA010414F0CF
:104F5000070F6AD100F0070420F0070004F00305F2
:104F600021F007014FEAC505F0E8042314F0040F0F
:104F7000F1E804670CFA05F462EA040266EA040642
:104F80000AD063EA0403624667EA0407664603E060
:104F9000F0E80423F1E8046782FA4CF582EA06049B
:104FA000A4FA8CF46CBB83FA4CF583EA0705A5FAE6
:104FB0008CF595B950E9022351E9026782FA4CF564
:104FC00082EA0604A4FA8CF483FA4CF583EA070516
:104FD000A5FA8CF52543DBD09CB92DBAB5FA85F43A
:104FE00024F0070427FA04F1DDE9026723FA04F349
:104FF00003F0FF0001F0FF01FDE80445A0EB010014
:10500000704724BAB4FA84F424F0070426FA04F1B1
:10501000DDE9026722FA04F202F0FF0001F0FF016D
:10502000FDE80445A0EB0100704714F0030F3CD1EC
:1050300010F0030428D150F8082B51F8083B82FAED
:105040004CF582EA0305A5FA8CF55DB950F8042CFD
:1050500051F8043C82FA4CF582EA0305A5FA8CF576
:10506000002DE8D02DBAB5FA85F424F0070423FA10
:1050700004F122FA04F202F0FF0001F0FF01FDE862
:105080000445A0EB010070474FEAC40420F0030080
:1050900050F8082B21F0030151F8083B0CFA04F4F6
:1050A00062EA040263EA0403C9E710F003041AD0B9
:1050B000A1EB040120F00300E40750F8042B06D014
:1050C0000FD28B785FFAA2F4E41A06D12BB1CB7819
:1050D0005FFAB2F4E41A00D11BB920465DF8104B18
:1050E000704701F1040150F8042BCC0721F00301B3
:1050F00051F8043B48D824D222F07F4482FA4CF580
:1051000094EA1325A5FA8CF50AD165B951F8043B48
:1051100084EA0204B4EB036F0ED150F8042BEBE7E2
:105120004FEA132355E035F07F454DD10878FDE86F
:105130000445C0F1000070474FEA126203F0FF031C
:1051400047E002EA1C4482FA4CF594EA1345A5FABA
:105150008CF50AD165B951F8043B84EA0204B4EB3A
:10516000034F0CD150F8042BEBE74FEA134330E028
:1051700015EA1C4528D10B884FEA124229E04FEA74
:10518000124203EA1C4324E002F0FF0482FA4CF5C9
:1051900094EA1365A5FA8CF50AD165B951F8043B78
:1051A00084EA0204B4EB032F09D150F8042BEBE797
:1051B0004FEA13630DE015F0FF0F05D10B684FEABE
:1051C000122223F07F4304E04FF00000FDE8044585
:1051D000704712BA1BBA82FA4CF482EA0304A4FAAA
:1051E0008CF5B5FA85F402FA04F203FA04F34FEAF7
:1051F0001260FDE80445A0EB13607047AFF3008038
:1052000020F0030110F00300C0F1000051F8043B4E
:1052100000F1040C4FEACC0C6FF000021CBF22FA24
:105220000CF213434FF0010C4CEA0C2C4CEA0C4CE2
:10523000A3EB0C0222EA030212EACC1204BF51F8DB
:10524000043B0430F4D0C2F1000102EA0102B2FAD8
:1052500082F2C2F11F0200EBD200704730B4002A84
:105260004AD040EA010313F003032DD1032A2BD9BE
:1052700004680D68AC4227D1043A3DD0A4F1013551
:1052800025EA040414F0803F3CD10C4603460EE0AE
:105290005B686468A3F10135A34225EA030513D1D5
:1052A000043A29D015F0803F29D103460C46032A41
:1052B00000F1040001F10401EAD8551E2AB9187959
:1052C0002279801A30BC7047551E03780A789342C1
:1052D0001AD1DDB1B3B16C1C0C448B1C014604E047
:1052E000A3420CD001330028ECD011F8010F13F8C1
:1052F000012C9042F4D0E4E7104630BC7047002007
:1053000030BC70471846DDE71846DAE72846D9E78B
:105310002DE9F04FC9B0914610930C910D9004F017
:105320006DFE00681590FFF76BFF0C9C1890A38929
:105330001A0603D52369002B01F091809FED967B1F
:105340008DED167B002338AC119308942D932C938C
:105350001A9319930E932B94264699F80030002B3C
:1053600000F0F880252B00F0F58009F1010201E042
:10537000252B04D0144601322378002BF8D1C9EB39
:1053800004057DB12C9B2D9AC6F8009001332A4468
:10539000072B75602D922C9300F3C28008360E986F
:1053A00028440E902378002B00F0C280002394F84C
:1053B00001808DF88F301A460F93099304F101098B
:1053C0004FF0FF340A9409F10109A8F12003582B8A
:1053D00000F2CC83DFE813F06F02CA03CA0376023F
:1053E000CA03CA03CA03CA03CA03CA031903690367
:1053F000CA039D00C000CA037D02840284028402A5
:10540000840284028402840284028402CA03CA03DE
:10541000CA03CA03CA03CA03CA03CA03CA03CA0324
:1054200095027403CA037403CA03CA03CA03CA03F6
:105430006D03CA03CA037800CA03CA03CA03CA03B6
:10544000CA035900CA03CA03B402CA03CA03CA037F
:10545000CA03CA03CA03CA03CA03CA03CA033C0372
:105460004D0374037403740304034D03CA03CA0396
:105470000D03CA03CA027C002603AA03CA03DE0284
:10548000CA035F00CA03CA03E400DDF824C04CF07D
:10549000100CCDF824C0099CA20600F15B83099C86
:1054A000E30600F1E585DDF824C01CF0400F00F0B4
:1054B000DF85DDF840C0BCF800400CF1040C00258D
:1054C0000123CDF840C092E0099D45F010050995F3
:1054D000DDF824C01CF0200340F03183DDF824C047
:1054E0001CF0100240F0BD85DDF824C01CF0400324
:1054F00000F0B785DDF840C0BCF800400CF1040CAA
:1055000013460025CDF840C071E00F9C1093644213
:105510000F94099D45F00405099599F8008052E71C
:105520000D980C992BAA06F0FBFC40B938AE36E773
:105530002D9B23B10D980C992BAA06F0F1FC0C9C25
:105540000E98A38913F0400F18BF4FF0FF3049B0F9
:10555000BDE8F08F4C4625E799F80080B8F12A0F96
:1055600009F1010001F01D81A8F13003092B98BF5A
:10557000002101F27C8010F8018B01EB810103EB2B
:105580004101A8F13003092BF5D941EAE1710A91F3
:1055900081461AE7AFF30080000000000000000021
:1055A000099DA14C1A94AF068DF88F2040F1D0814F
:1055B000DDF840C00CF1070323F0070303F10804F2
:1055C0001094D3E90045DDF824C01CF0010F00F071
:1055D000638454EA050000F05F8430234CF0020C31
:1055E0008DF890308DF89180CDF824C002234FF0D3
:1055F000000A8DF88FA00A99002905DBDDF824C088
:105600002CF0800CCDF824C054EA050040F0C6828E
:105610000A99002940F0C282002B40F03984DDF85D
:1056200024C01CF0010F00F0338448AF302307F88A
:10563000413D089DEC1BDDF828C000256445A8BF4E
:10564000A446CDF82CC01495BAF1000F02D00B9DE2
:1056500001350B95099B13F00203129302D00B9DA9
:1056600002350B95DDF824C01CF0840CCDF84CC03D
:1056700040F091820F9DDDF82CC0CCEB050BBBF107
:10568000000F40F38882BBF1100F2D992C9ADFF8A0
:10569000A0A12CDD1B97304657461025CA460C9E0C
:1056A000A1460D9C06E0ABF1100BBBF1100F00F111
:1056B000080017DD01321031072A2D912C92076066
:1056C0004560F0DD204631462BAA06F029FC002873
:1056D0007FF435AFABF1100BBBF1100F2D992C9A65
:1056E00038A8E7DC4C46D146BA461B9F0646013235
:1056F0000BEB010C072ACDF8B4C02C9286E8000C05
:1057000000F31B849DF88FA00836BAF1000F0FD06C
:105710002C9B01330CF1010C0DF18F010122072BA1
:10572000CDF8B4C02C9386E8060000F399830836C0
:10573000129B73B12C9B01330CF1020C24A90222A1
:10574000072BCDF8B4C02C9386E8060000F39483B1
:105750000836139D802D00F0CB820A9DC4EB050A0C
:10576000BAF1000F3BDDBAF1100F2C9B2F4D2BDD52
:105770000A9432464FF0100B2E4661460D9C0C9D4C
:1057800006E0AAF1100ABAF1100F02F1080217DDC3
:1057900001331031072B2D912C9382E84008F0DD66
:1057A000204629462BAA06F0BBFB00287FF4C7AE93
:1057B000AAF1100ABAF1100F2D992C9B38AAE7DC38
:1057C0000A9C35468C4616460133D444072BCDF847
:1057D000B4C02C9386E8200400F336830836099D74
:1057E000ED0500F125822C9B37600133A444072B83
:1057F000CDF8B4C074602C9300F310830836099C74
:10580000630748D50F9D0B982C1A002C43DD102CF4
:105810002C9BDFF81CA02ADD574610256246DDF8D8
:105820003080DDF834A00AE0E8E2000808E3000870
:10583000B4E20008103C102C06F1080615DD013317
:105840001032072B2D922C9337607560F2DD504695
:1058500041462BAA06F064FB00287FF470AE103C92
:10586000102C2D9A2C9B38AEE9DC9446BA460133B5
:10587000A444072BCDF8B4C02C93C6F800A07460E4
:1058800009DD0D980C992BAA06F04AFB00287FF43D
:1058900056AEDDF8B4C00E9C0B980F9DA842ACBF6D
:1058A000241864190E94BCF1000F40F0C382002349
:1058B0002C9338AE51E599F80080002A7FF483AD2F
:1058C000202280E5099D45F00105099599F80080A1
:1058D00079E5099D45F08005099599F8008072E504
:1058E0000024A8F130030F94214619F8018B01EB35
:1058F000810103EB4101A8F13003092BF5D90F9188
:1059000063E5DDF824C08DF88F204CF0100CCDF845
:1059100024C0099CA30640F1B280109DE91D21F02E
:105920000701D1E900230831109114461D46002AD1
:1059300073F10000C0F28B839DF88FA001235AE61B
:10594000099DB74C8DF88F20AF061A943FF530AE05
:10595000099DED0640F15E84DDF840C0DCF80040B2
:105960000CF1040CCDF840C000252CE6DDF824C075
:105970008DF88F201CF0200F00F03E84109C2168D1
:105980000E9CE5172B46109D224604351095C1E963
:105990000023E2E4109C27684FF0000A8DF88FA0E6
:1059A000251D002F00F0F5850A9C002C3846C0F21A
:1059B000A78551462246FEF73FFD002800F01F86CE
:1059C0000A9C1095C01BA042B8BF044624EAE475A7
:1059D000CDF828A0CDF850A00B959DF88FA033E608
:1059E000DDF824C04CF0400CCDF824C099F80080BC
:1059F000E9E499F80080B8F16C0F4B4600F08D8413
:105A0000099D45F010050995DDE4109C109D246862
:105A10000F94002C05F10403FFF677AD109399F86D
:105A20000080D0E4109ADDF824C07E4814681A90F3
:105A30003023151D4FF078084CF0020C8DF8903093
:105A40001095CDF824C000258DF891800223CEE575
:105A5000109A109D12688DF8B82000230124043597
:105A60009A460B9410958DF88F300A9314932EAFAD
:105A7000F0E5099C8DF88F20A3063FF54EAFDDF8C9
:105A800024C01CF0100F40F0D282099C670640F140
:105A9000CE82DDF840C0BCF900400CF1040CE517E3
:105AA00022462B46CDF840C041E799F800802B22D2
:105AB00089E4099D45F00805099599F8008082E47C
:105AC000099C8DF88F20250740F18B83109DEB1DDD
:105AD00023F0070393ED007B8DED167B03F1080C9B
